{"abi":[{"type":"constructor","inputs":[{"name":"_inft","type":"address","internalType":"address"},{"name":"_registry","type":"address","internalType":"address"},{"name":"_impl","type":"address","internalType":"address"},{"name":"_attestor","type":"address","internalType":"address"}],"stateMutability":"nonpayable"},{"type":"function","name":"MAX_DEPTH","inputs":[],"outputs":[{"name":"","type":"uint256","internalType":"uint256"}],"stateMutability":"view"},{"type":"function","name":"SALT","inputs":[],"outputs":[{"name":"","type":"bytes32","internalType":"bytes32"}],"stateMutability":"view"},{"type":"function","name":"accountImpl","inputs":[],"outputs":[{"name":"","type":"address","internalType":"address"}],"stateMutability":"view"},{"type":"function","name":"attestor","inputs":[],"outputs":[{"name":"","type":"address","internalType":"contract ISnap"}],"stateMutability":"view"},{"type":"function","name":"dailyVolume","inputs":[{"name":"","type":"uint256","internalType":"uint256"},{"name":"","type":"uint256","internalType":"uint256"}],"outputs":[{"name":"","type":"uint256","internalType":"uint256"}],"stateMutability":"view"},{"type":"function","name":"eip712Domain","inputs":[],"outputs":[{"name":"fields","type":"bytes1","internalType":"bytes1"},{"name":"name","type":"string","internalType":"string"},{"name":"version","type":"string","internalType":"string"},{"name":"chainId","type":"uint256","internalType":"uint256"},{"name":"verifyingContract","type":"address","internalType":"address"},{"name":"salt","type":"bytes32","internalType":"bytes32"},{"name":"extensions","type":"uint256[]","internalType":"uint256[]"}],"stateMutability":"view"},{"type":"function","name":"executeChildIntent","inputs":[{"name":"parentId","type":"uint256","internalType":"uint256"},{"name":"i","type":"tuple","internalType":"struct AgentController.Intent","components":[{"name":"tokenId","type":"uint256","internalType":"uint256"},{"name":"nonce","type":"uint256","internalType":"uint256"},{"name":"target","type":"address","internalType":"address"},{"name":"value","type":"uint256","internalType":"uint256"},{"name":"callData","type":"bytes","internalType":"bytes"},{"name":"expiry","type":"uint64","internalType":"uint64"}]},{"name":"sig","type":"bytes","internalType":"bytes"}],"outputs":[],"stateMutability":"nonpayable"},{"type":"function","name":"executeIntent","inputs":[{"name":"i","type":"tuple","internalType":"struct AgentController.Intent","components":[{"name":"tokenId","type":"uint256","internalType":"uint256"},{"name":"nonce","type":"uint256","internalType":"uint256"},{"name":"target","type":"address","internalType":"address"},{"name":"value","type":"uint256","internalType":"uint256"},{"name":"callData","type":"bytes","internalType":"bytes"},{"name":"expiry","type":"uint64","internalType":"uint64"}]},{"name":"sig","type":"bytes","internalType":"bytes"}],"outputs":[],"stateMutability":"nonpayable"},{"type":"function","name":"inft","inputs":[],"outputs":[{"name":"","type":"address","internalType":"contract IERC721"}],"stateMutability":"view"},{"type":"function","name":"intentDigest","inputs":[{"name":"i","type":"tuple","internalType":"struct AgentController.Intent","components":[{"name":"tokenId","type":"uint256","internalType":"uint256"},{"name":"nonce","type":"uint256","internalType":"uint256"},{"name":"target","type":"address","internalType":"address"},{"name":"value","type":"uint256","internalType":"uint256"},{"name":"callData","type":"bytes","internalType":"bytes"},{"name":"expiry","type":"uint64","internalType":"uint64"}]}],"outputs":[{"name":"","type":"bytes32","internalType":"bytes32"}],"stateMutability":"view"},{"type":"function","name":"isInSubtree","inputs":[{"name":"parentId","type":"uint256","internalType":"uint256"},{"name":"childId","type":"uint256","internalType":"uint256"}],"outputs":[{"name":"","type":"bool","internalType":"bool"}],"stateMutability":"view"},{"type":"function","name":"nextNonce","inputs":[{"name":"","type":"uint256","internalType":"uint256"}],"outputs":[{"name":"","type":"uint256","internalType":"uint256"}],"stateMutability":"view"},{"type":"function","name":"operatorOf","inputs":[{"name":"","type":"uint256","internalType":"uint256"}],"outputs":[{"name":"","type":"address","internalType":"address"}],"stateMutability":"view"},{"type":"function","name":"policyOf","inputs":[{"name":"id","type":"uint256","internalType":"uint256"}],"outputs":[{"name":"","type":"tuple","internalType":"struct AgentController.Policy","components":[{"name":"allowedTargets","type":"address[]","internalType":"address[]"},{"name":"maxValuePerTx","type":"uint256","internalType":"uint256"},{"name":"maxDailyVolume","type":"uint256","internalType":"uint256"},{"name":"snapshotMaxAge","type":"uint256","internalType":"uint256"}]}],"stateMutability":"view"},{"type":"function","name":"registry","inputs":[],"outputs":[{"name":"","type":"address","internalType":"contract IERC6551Registry"}],"stateMutability":"view"},{"type":"function","name":"setOperator","inputs":[{"name":"id","type":"uint256","internalType":"uint256"},{"name":"op","type":"address","internalType":"address"}],"outputs":[],"stateMutability":"nonpayable"},{"type":"function","name":"setPolicy","inputs":[{"name":"id","type":"uint256","internalType":"uint256"},{"name":"p","type":"tuple","internalType":"struct AgentController.Policy","components":[{"name":"allowedTargets","type":"address[]","internalType":"address[]"},{"name":"maxValuePerTx","type":"uint256","internalType":"uint256"},{"name":"maxDailyVolume","type":"uint256","internalType":"uint256"},{"name":"snapshotMaxAge","type":"uint256","internalType":"uint256"}]}],"outputs":[],"stateMutability":"nonpayable"},{"type":"function","name":"walletOf","inputs":[{"name":"id","type":"uint256","internalType":"uint256"}],"outputs":[{"name":"","type":"address","internalType":"address"}],"stateMutability":"view"},{"type":"event","name":"EIP712DomainChanged","inputs":[],"anonymous":false},{"type":"event","name":"IntentExecuted","inputs":[{"name":"parentId","type":"uint256","indexed":true,"internalType":"uint256"},{"name":"childId","type":"uint256","indexed":true,"internalType":"uint256"},{"name":"target","type":"address","indexed":true,"internalType":"address"},{"name":"value","type":"uint256","indexed":false,"internalType":"uint256"},{"name":"callHash","type":"bytes32","indexed":false,"internalType":"bytes32"}],"anonymous":false},{"type":"event","name":"OperatorSet","inputs":[{"name":"tokenId","type":"uint256","indexed":true,"internalType":"uint256"},{"name":"operator","type":"address","indexed":false,"internalType":"address"}],"anonymous":false},{"type":"event","name":"PolicySet","inputs":[{"name":"tokenId","type":"uint256","indexed":true,"internalType":"uint256"}],"anonymous":false},{"type":"error","name":"InvalidShortString","inputs":[]},{"type":"error","name":"StringTooLong","inputs":[{"name":"str","type":"string","internalType":"string"}]}],"bytecode":{"object":"0x6101e060405234801562000011575f80fd5b5060405162002228380380620022288339810160408190526200003491620001fa565b604080518082018252601581527f694e4654322d4167656e74436f6e74726f6c6c65720000000000000000000000602080830191909152825180840190935260018352603160f81b90830152906200008d825f6200015b565b610120526200009e8160016200015b565b61014052815160208084019190912060e052815190820120610100524660a0526200012b60e05161010051604080517f8b73c3c69bb8fe3d512ecc4cf759cc79239f7b179b0ffacaa9a75d522b39400f60208201529081019290925260608201524660808201523060a08201525f9060c00160405160208183030381529060405280519060200120905090565b60805250503060c0526001600160a01b03938416610160529183166101805282166101a052166101c0526200042d565b5f6020835110156200017a57620001728362000193565b90506200018d565b81620001878482620002f4565b5060ff90505b92915050565b5f80829050601f81511115620001c9578260405163305a27a960e01b8152600401620001c09190620003bc565b60405180910390fd5b8051620001d68262000409565b179392505050565b80516001600160a01b0381168114620001f5575f80fd5b919050565b5f805f80608085870312156200020e575f80fd5b6200021985620001de565b93506200022960208601620001de565b92506200023960408601620001de565b91506200024960608601620001de565b905092959194509250565b634e487b7160e01b5f52604160045260245ffd5b600181811c908216806200027d57607f821691505b6020821081036200029c57634e487b7160e01b5f52602260045260245ffd5b50919050565b601f821115620002ef575f81815260208120601f850160051c81016020861015620002ca5750805b601f850160051c820191505b81811015620002eb57828155600101620002d6565b5050505b505050565b81516001600160401b0381111562000310576200031062000254565b620003288162000321845462000268565b84620002a2565b602080601f8311600181146200035e575f8415620003465750858301515b5f19600386901b1c1916600185901b178555620002eb565b5f85815260208120601f198616915b828110156200038e578886015182559484019460019091019084016200036d565b5085821015620003ac57878501515f19600388901b60f8161c191681555b5050505050600190811b01905550565b5f6020808352835180828501525f5b81811015620003e957858101830151858201604001528201620003cb565b505f604082860101526040601f19601f8301168501019250505092915050565b805160208083015191908110156200029c575f1960209190910360031b1b16919050565b60805160a05160c05160e05161010051610120516101405161016051610180516101a0516101c051611d49620004df5f395f818161029b0152610dbd01525f8181610202015261096101525f81816101c001526109c701525f818161011a015281816108520152818161099701528181610a650152818161103e015261114101525f61056c01525f61054201525f6114b401525f61148c01525f6113e701525f61141101525f61143b0152611d495ff3fe608060405234801561000f575f80fd5b5060043610610111575f3560e01c8063a27154ba1161009e578063cada25c21161006e578063cada25c214610296578063e0fa88e1146102bd578063e6ac806e146102d0578063e7a1c1c0146102f3578063f41875e114610306575f80fd5b8063a27154ba14610261578063b6d3661114610269578063ba9a91a51461027c578063c03af80714610283575f80fd5b80637b103999116100e45780637b103999146101bb57806384b0196e146101e25780638804eb9f146101fd57806388c430371461022457806398519dfd1461024e575f80fd5b80634548745d146101155780634a907bbe1461015957806354d385901461016e57806367cbe2d51461018e575b5f80fd5b61013c7f000000000000000000000000000000000000000000000000000000000000000081565b6040516001600160a01b0390911681526020015b60405180910390f35b61016c610167366004611641565b61032e565b005b61018161017c3660046116a5565b610478565b60405161015091906116bc565b6101ad61019c3660046116a5565b60046020525f908152604090205481565b604051908152602001610150565b61013c7f000000000000000000000000000000000000000000000000000000000000000081565b6101ea610535565b6040516101509796959493929190611781565b61013c7f000000000000000000000000000000000000000000000000000000000000000081565b6101ad610232366004611815565b600560209081525f928352604080842090915290825290205481565b6101ad61025c366004611835565b6105bb565b6101ad600381565b61016c61027736600461186f565b610698565b6101ad5f81565b61016c6102913660046118da565b610832565b61013c7f000000000000000000000000000000000000000000000000000000000000000081565b61013c6102cb3660046116a5565b61094a565b6102e36102de366004611815565b610a32565b6040519015158152602001610150565b61016c610301366004611938565b610a45565b61013c6103143660046116a5565b60026020525f90815260409020546001600160a01b031681565b82355f90815260026020908152604091829020548251601f85018390048302810183019093528383526001600160a01b0316916103909185908590819084018382808284375f9201919091525061038a92508891506105bb9050565b90610b77565b6001600160a01b0316146103de5760405162461bcd60e51b815260206004820152601060248201526f626164206f70657261746f722073696760801b60448201526064015b60405180910390fd5b6103e9833584610b99565b6103f4833584610e7d565b610404606084016040850161195b565b6001600160a01b03168335807f7f0497c2e1a86199355adc88f6c7a5426cd2e6173c039d550bd152a44e9a1d9560608701356104436080890189611976565b6040516104519291906119b9565b60405190819003812061046b928252602082015260400190565b60405180910390a4505050565b6104a06040518060800160405280606081526020015f81526020015f81526020015f81525090565b5f828152600360209081526040918290208251815460a09381028201840190945260808101848152909391928492849184018282801561050757602002820191905f5260205f20905b81546001600160a01b031681526001909101906020018083116104e9575b5050505050815260200160018201548152602001600282015481526020016003820154815250509050919050565b5f606080828080836105677f000000000000000000000000000000000000000000000000000000000000000083610f1e565b6105927f00000000000000000000000000000000000000000000000000000000000000006001610f1e565b604080515f80825260208201909252600f60f81b9b939a50919850469750309650945092509050565b5f6106927fcb660a950cceeea603df64d583b984d51530a6ab9b37f0ee95ce9fd21ef072e7833560208501356105f7606087016040880161195b565b60608701356106096080890189611976565b6040516106179291906119b9565b60405190819003902061063060c08a0160a08b016119dc565b60408051602081019890985287019590955260608601939093526001600160a01b03909116608085015260a084015260c083015267ffffffffffffffff1660e08201526101000160405160208183030381529060405280519060200120610fc7565b92915050565b5f84815260026020908152604091829020548251601f85018390048302810183019093528383526001600160a01b0316916106f29185908590819084018382808284375f9201919091525061038a92508891506105bb9050565b6001600160a01b0316146107485760405162461bcd60e51b815260206004820152601760248201527f62616420706172656e74206f70657261746f722073696700000000000000000060448201526064016103d5565b6107548484355f610ff3565b6107975760405162461bcd60e51b81526020600482015260146024820152736368696c64206e6f7420696e207375627472656560601b60448201526064016103d5565b6107a2833584610b99565b6107ad833584610e7d565b6107bd606084016040850161195b565b6001600160a01b03168335857f7f0497c2e1a86199355adc88f6c7a5426cd2e6173c039d550bd152a44e9a1d9560608701356107fc6080890189611976565b60405161080a9291906119b9565b604051908190038120610824928252602082015260400190565b60405180910390a450505050565b6040516331a9108f60e11b81526004810183905233906001600160a01b037f00000000000000000000000000000000000000000000000000000000000000001690636352211e90602401602060405180830381865afa158015610897573d5f803e3d5ffd5b505050506040513d601f19601f820116820180604052508101906108bb9190611a03565b6001600160a01b0316146109015760405162461bcd60e51b815260206004820152600d60248201526c3737ba1027232a1037bbb732b960991b60448201526064016103d5565b5f828152600360205260409020819061091a8282611a3e565b505060405182907f04906d8a9f80ed3fa270d512830928870e2ca0c16114ebb4f85ed052c67c94b2905f90a25050565b60405163246a002160e01b81526001600160a01b037f0000000000000000000000000000000000000000000000000000000000000000811660048301525f602483018190524660448401527f00000000000000000000000000000000000000000000000000000000000000008216606484015260848301849052917f00000000000000000000000000000000000000000000000000000000000000009091169063246a00219060a401602060405180830381865afa158015610a0e573d5f803e3d5ffd5b505050506040513d601f19601f820116820180604052508101906106929190611a03565b5f610a3e83835f610ff3565b9392505050565b6040516331a9108f60e11b81526004810183905233906001600160a01b037f00000000000000000000000000000000000000000000000000000000000000001690636352211e90602401602060405180830381865afa158015610aaa573d5f803e3d5ffd5b505050506040513d601f19601f82011682018060405250810190610ace9190611a03565b6001600160a01b031614610b145760405162461bcd60e51b815260206004820152600d60248201526c3737ba1027232a1037bbb732b960991b60448201526064016103d5565b5f8281526002602090815260409182902080546001600160a01b0319166001600160a01b038516908117909155915191825283917f712369dba77e7931b9ec3bd57319108256b9f79ea5b5255122e3c06117421593910160405180910390a25050565b5f805f610b8485856111aa565b91509150610b91816111ec565b509392505050565b5f828152600360209081526040808320600483529220549083013514610bed5760405162461bcd60e51b8152602060048201526009602482015268626164206e6f6e636560b81b60448201526064016103d5565b610bfc60208301356001611b1f565b5f84815260046020526040902055610c1a60c0830160a084016119dc565b67ffffffffffffffff16421115610c5d5760405162461bcd60e51b8152602060048201526007602482015266195e1c1a5c995960ca1b60448201526064016103d5565b610c7681610c71606085016040860161195b565b611338565b610cb25760405162461bcd60e51b815260206004820152600d60248201526c1d185c99d95d0819195b9a5959609a1b60448201526064016103d5565b806001015482606001351115610cfb5760405162461bcd60e51b815260206004820152600e60248201526d0ecc2d8eaca40e8dede40d0d2ced60931b60448201526064016103d5565b5f610d096201518042611b32565b5f85815260056020908152604080832084845290915281208054929350606086013592909190610d3a908490611b1f565b909155505060028201545f8581526005602090815260408083208584529091529020541115610d975760405162461bcd60e51b815260206004820152600960248201526806461696c79206361760bc1b60448201526064016103d5565b600382015415610e775760038201546040516310ededb760e21b81526001600160a01b037f000000000000000000000000000000000000000000000000000000000000000016916343b7b6dc91610dfb918891600401918252602082015260400190565b602060405180830381865afa158015610e16573d5f803e3d5ffd5b505050506040513d601f19601f82011682018060405250810190610e3a9190611b51565b610e775760405162461bcd60e51b815260206004820152600e60248201526d1cdd185b19481cdb985c1cda1bdd60921b60448201526064016103d5565b50505050565b610e868261094a565b6001600160a01b03166351945447610ea4606084016040850161195b565b6060840135610eb66080860186611976565b5f6040518663ffffffff1660e01b8152600401610ed7959493929190611b70565b5f604051808303815f875af1158015610ef2573d5f803e3d5ffd5b505050506040513d5f823e601f3d908101601f19168201604052610f199190810190611bc3565b505050565b606060ff8314610f3857610f318361139e565b9050610692565b818054610f4490611c6b565b80601f0160208091040260200160405190810160405280929190818152602001828054610f7090611c6b565b8015610fbb5780601f10610f9257610100808354040283529160200191610fbb565b820191905f5260205f20905b815481529060010190602001808311610f9e57829003601f168201915b50505050509050610692565b5f610692610fd36113db565b8360405161190160f01b8152600281019290925260228201526042902090565b5f82840361100257505f610a3e565b6003821061101157505f610a3e565b5f61101b8561094a565b6040516331a9108f60e11b8152600481018690529091505f906001600160a01b037f00000000000000000000000000000000000000000000000000000000000000001690636352211e90602401602060405180830381865afa158015611083573d5f803e3d5ffd5b505050506040513d601f19601f820116820180604052508101906110a79190611a03565b9050816001600160a01b0316816001600160a01b0316036110cd57600192505050610a3e565b806001600160a01b031663fc0c546a6040518163ffffffff1660e01b8152600401606060405180830381865afa925050508015611127575060408051601f3d908101601f1916820190925261112491810190611c9d565b60015b611135575f92505050610a3e565b468314158061117657507f00000000000000000000000000000000000000000000000000000000000000006001600160a01b0316826001600160a01b031614155b15611188575f95505050505050610a3e565b61119d89826111988a6001611b1f565b610ff3565b9998505050505050505050565b5f8082516041036111de576020830151604084015160608501515f1a6111d287828585611509565b945094505050506111e5565b505f905060025b9250929050565b5f8160048111156111ff576111ff611cd3565b036112075750565b600181600481111561121b5761121b611cd3565b036112685760405162461bcd60e51b815260206004820152601860248201527f45434453413a20696e76616c6964207369676e6174757265000000000000000060448201526064016103d5565b600281600481111561127c5761127c611cd3565b036112c95760405162461bcd60e51b815260206004820152601f60248201527f45434453413a20696e76616c6964207369676e6174757265206c656e6774680060448201526064016103d5565b60038160048111156112dd576112dd611cd3565b036113355760405162461bcd60e51b815260206004820152602260248201527f45434453413a20696e76616c6964207369676e6174757265202773272076616c604482015261756560f01b60648201526084016103d5565b50565b5f805b835481101561139557826001600160a01b031684828154811061136057611360611ce7565b5f918252602090912001546001600160a01b031603611383576001915050610692565b8061138d81611cfb565b91505061133b565b505f9392505050565b60605f6113aa836115c6565b6040805160208082528183019092529192505f91906020820181803683375050509182525060208101929092525090565b5f306001600160a01b037f00000000000000000000000000000000000000000000000000000000000000001614801561143357507f000000000000000000000000000000000000000000000000000000000000000046145b1561145d57507f000000000000000000000000000000000000000000000000000000000000000090565b611504604080517f8b73c3c69bb8fe3d512ecc4cf759cc79239f7b179b0ffacaa9a75d522b39400f60208201527f0000000000000000000000000000000000000000000000000000000000000000918101919091527f000000000000000000000000000000000000000000000000000000000000000060608201524660808201523060a08201525f9060c00160405160208183030381529060405280519060200120905090565b905090565b5f807f7fffffffffffffffffffffffffffffff5d576e7357a4501ddfe92f46681b20a083111561153e57505f905060036115bd565b604080515f8082526020820180845289905260ff881692820192909252606081018690526080810185905260019060a0016020604051602081039080840390855afa15801561158f573d5f803e3d5ffd5b5050604051601f1901519150506001600160a01b0381166115b7575f600192509250506115bd565b91505f90505b94509492505050565b5f60ff8216601f81111561069257604051632cd44ac360e21b815260040160405180910390fd5b5f60c082840312156115fd575f80fd5b50919050565b5f8083601f840112611613575f80fd5b50813567ffffffffffffffff81111561162a575f80fd5b6020830191508360208285010111156111e5575f80fd5b5f805f60408486031215611653575f80fd5b833567ffffffffffffffff8082111561166a575f80fd5b611676878388016115ed565b9450602086013591508082111561168b575f80fd5b5061169886828701611603565b9497909650939450505050565b5f602082840312156116b5575f80fd5b5035919050565b60208082528251608083830152805160a084018190525f9291820190839060c08601905b808310156117095783516001600160a01b031682529284019260019290920191908401906116e0565b5083870151604087015260408701516060870152606087015160808701528094505050505092915050565b5f5b8381101561174e578181015183820152602001611736565b50505f910152565b5f815180845261176d816020860160208601611734565b601f01601f19169290920160200192915050565b60ff60f81b881681525f602060e0818401526117a060e084018a611756565b83810360408501526117b2818a611756565b606085018990526001600160a01b038816608086015260a0850187905284810360c086015285518082528387019250908301905f5b81811015611803578351835292840192918401916001016117e7565b50909c9b505050505050505050505050565b5f8060408385031215611826575f80fd5b50508035926020909101359150565b5f60208284031215611845575f80fd5b813567ffffffffffffffff81111561185b575f80fd5b611867848285016115ed565b949350505050565b5f805f8060608587031215611882575f80fd5b84359350602085013567ffffffffffffffff808211156118a0575f80fd5b6118ac888389016115ed565b945060408701359150808211156118c1575f80fd5b506118ce87828801611603565b95989497509550505050565b5f80604083850312156118eb575f80fd5b82359150602083013567ffffffffffffffff811115611908575f80fd5b830160808186031215611919575f80fd5b809150509250929050565b6001600160a01b0381168114611335575f80fd5b5f8060408385031215611949575f80fd5b82359150602083013561191981611924565b5f6020828403121561196b575f80fd5b8135610a3e81611924565b5f808335601e1984360301811261198b575f80fd5b83018035915067ffffffffffffffff8211156119a5575f80fd5b6020019150368190038213156111e5575f80fd5b818382375f9101908152919050565b634e487b7160e01b5f52604160045260245ffd5b5f602082840312156119ec575f80fd5b813567ffffffffffffffff81168114610a3e575f80fd5b5f60208284031215611a13575f80fd5b8151610a3e81611924565b634e487b7160e01b5f52601160045260245ffd5b5f813561069281611924565b8135601e19833603018112611a51575f80fd5b8201803567ffffffffffffffff811115611a69575f80fd5b602080830192508160051b3603831315611a81575f80fd5b68010000000000000000821115611a9a57611a9a6119c8565b835482855580831015611acf575f8581528281208481019083015b80821015611acb57828255600182019150611ab5565b5050505b505f848152602090205f5b83811015611afb57611aeb85611a32565b8282015593820193600101611ada565b50508401356001840155505060408201356002820155606090910135600390910155565b8082018082111561069257610692611a1e565b5f82611b4c57634e487b7160e01b5f52601260045260245ffd5b500490565b5f60208284031215611b61575f80fd5b81518015158114610a3e575f80fd5b6001600160a01b0386168152602081018590526080604082018190528101839052828460a08301375f60a084830101525f60a0601f19601f860116830101905060ff831660608301529695505050505050565b5f60208284031215611bd3575f80fd5b815167ffffffffffffffff80821115611bea575f80fd5b818401915084601f830112611bfd575f80fd5b815181811115611c0f57611c0f6119c8565b604051601f8201601f19908116603f01168101908382118183101715611c3757611c376119c8565b81604052828152876020848701011115611c4f575f80fd5b611c60836020830160208801611734565b979650505050505050565b600181811c90821680611c7f57607f821691505b6020821081036115fd57634e487b7160e01b5f52602260045260245ffd5b5f805f60608486031215611caf575f80fd5b835192506020840151611cc181611924565b80925050604084015190509250925092565b634e487b7160e01b5f52602160045260245ffd5b634e487b7160e01b5f52603260045260245ffd5b5f60018201611d0c57611d0c611a1e565b506001019056fea26469706673582212208526ce73d4a8d872e6c9aef487e6bcf80b76304f520e28cadefe2292beece4da64736f6c63430008140033","linkReferences":{}},"methodIdentifiers":{"MAX_DEPTH()":"a27154ba","SALT()":"ba9a91a5","accountImpl()":"8804eb9f","attestor()":"cada25c2","dailyVolume(uint256,uint256)":"88c43037","eip712Domain()":"84b0196e","executeChildIntent(uint256,(uint256,uint256,address,uint256,bytes,uint64),bytes)":"b6d36611","executeIntent((uint256,uint256,address,uint256,bytes,uint64),bytes)":"4a907bbe","inft()":"4548745d","intentDigest((uint256,uint256,address,uint256,bytes,uint64))":"98519dfd","isInSubtree(uint256,uint256)":"e6ac806e","nextNonce(uint256)":"67cbe2d5","operatorOf(uint256)":"f41875e1","policyOf(uint256)":"54d38590","registry()":"7b103999","setOperator(uint256,address)":"e7a1c1c0","setPolicy(uint256,(address[],uint256,uint256,uint256))":"c03af807","walletOf(uint256)":"e0fa88e1"},"id":10}