{"abi":[{"type":"constructor","inputs":[{"name":"_operator","type":"address","internalType":"address"}],"stateMutability":"nonpayable"},{"type":"function","name":"keyOf","inputs":[{"name":"tokenId","type":"uint256","internalType":"uint256"}],"outputs":[{"name":"","type":"bytes","internalType":"bytes"}],"stateMutability":"view"},{"type":"function","name":"keyOwner","inputs":[{"name":"","type":"uint256","internalType":"uint256"}],"outputs":[{"name":"","type":"address","internalType":"address"}],"stateMutability":"view"},{"type":"function","name":"operator","inputs":[],"outputs":[{"name":"","type":"address","internalType":"address"}],"stateMutability":"view"},{"type":"function","name":"setKey","inputs":[{"name":"tokenId","type":"uint256","internalType":"uint256"},{"name":"pubkey","type":"bytes","internalType":"bytes"}],"outputs":[],"stateMutability":"nonpayable"},{"type":"function","name":"setKeyFor","inputs":[{"name":"tokenId","type":"uint256","internalType":"uint256"},{"name":"newOwner","type":"address","internalType":"address"},{"name":"pubkey","type":"bytes","internalType":"bytes"}],"outputs":[],"stateMutability":"nonpayable"},{"type":"event","name":"KeySet","inputs":[{"name":"tokenId","type":"uint256","indexed":true,"internalType":"uint256"},{"name":"owner","type":"address","indexed":true,"internalType":"address"},{"name":"pubkey","type":"bytes","indexed":false,"internalType":"bytes"}],"anonymous":false}],"bytecode":{"object":"0x60a060405234801561000f575f80fd5b5060405161072b38038061072b83398101604081905261002e9161003f565b6001600160a01b031660805261006c565b5f6020828403121561004f575f80fd5b81516001600160a01b0381168114610065575f80fd5b9392505050565b6080516106a161008a5f395f81816073015261011801526106a15ff3fe608060405234801561000f575f80fd5b5060043610610055575f3560e01c806307905e5e14610059578063570ca7351461006e5780637b3a1347146100b257806382246cb4146100d2578063decd64b3146100e5575b5f80fd5b61006c6100673660046103da565b61010d565b005b6100957f000000000000000000000000000000000000000000000000000000000000000081565b6040516001600160a01b0390911681526020015b60405180910390f35b6100c56100c036600461043d565b610220565b6040516100a99190610454565b61006c6100e036600461049f565b6102bf565b6100956100f336600461043d565b60016020525f90815260409020546001600160a01b031681565b336001600160a01b037f000000000000000000000000000000000000000000000000000000000000000016148061015957505f848152600160205260409020546001600160a01b031633145b61019b5760405162461bcd60e51b815260206004820152600e60248201526d1b9bdd08185d5d1a1bdc9a5e995960921b60448201526064015b60405180910390fd5b5f8481526020819052604090206101b3828483610581565b505f848152600160205260409081902080546001600160a01b0319166001600160a01b038616908117909155905185907f3bbba87e8b0a07d589801e13dd322881105b6fbd2243e5568a3c6a23ec52672f90610212908690869061063d565b60405180910390a350505050565b5f81815260208190526040902080546060919061023c906104fb565b80601f0160208091040260200160405190810160405280929190818152602001828054610268906104fb565b80156102b35780601f1061028a576101008083540402835291602001916102b3565b820191905f5260205f20905b81548152906001019060200180831161029657829003601f168201915b50505050509050919050565b5f838152600160205260409020546001600160a01b03168015806102eb57506001600160a01b03811633145b6103275760405162461bcd60e51b815260206004820152600d60248201526c3737ba1035b2bc9037bbb732b960991b6044820152606401610192565b5f84815260208190526040902061033f838583610581565b505f848152600160205260409081902080546001600160a01b03191633908117909155905185907f3bbba87e8b0a07d589801e13dd322881105b6fbd2243e5568a3c6a23ec52672f90610212908790879061063d565b5f8083601f8401126103a5575f80fd5b50813567ffffffffffffffff8111156103bc575f80fd5b6020830191508360208285010111156103d3575f80fd5b9250929050565b5f805f80606085870312156103ed575f80fd5b8435935060208501356001600160a01b038116811461040a575f80fd5b9250604085013567ffffffffffffffff811115610425575f80fd5b61043187828801610395565b95989497509550505050565b5f6020828403121561044d575f80fd5b5035919050565b5f6020808352835180828501525f5b8181101561047f57858101830151858201604001528201610463565b505f604082860101526040601f19601f8301168501019250505092915050565b5f805f604084860312156104b1575f80fd5b83359250602084013567ffffffffffffffff8111156104ce575f80fd5b6104da86828701610395565b9497909650939450505050565b634e487b7160e01b5f52604160045260245ffd5b600181811c9082168061050f57607f821691505b60208210810361052d57634e487b7160e01b5f52602260045260245ffd5b50919050565b601f82111561057c575f81815260208120601f850160051c810160208610156105595750805b601f850160051c820191505b8181101561057857828155600101610565565b5050505b505050565b67ffffffffffffffff831115610599576105996104e7565b6105ad836105a783546104fb565b83610533565b5f601f8411600181146105de575f85156105c75750838201355b5f19600387901b1c1916600186901b178355610636565b5f83815260209020601f19861690835b8281101561060e57868501358255602094850194600190920191016105ee565b508682101561062a575f1960f88860031b161c19848701351681555b505060018560011b0183555b5050505050565b60208152816020820152818360408301375f818301604090810191909152601f909201601f1916010191905056fea2646970667358221220d774b481e8c4603e44e5bcab0de8be356288d40077d1daa224fb0dfb567a8ea164736f6c63430008140033","linkReferences":{}},"methodIdentifiers":{"keyOf(uint256)":"7b3a1347","keyOwner(uint256)":"decd64b3","operator()":"570ca735","setKey(uint256,bytes)":"82246cb4","setKeyFor(uint256,address,bytes)":"07905e5e"},"id":19}