{"abi":[{"type":"function","name":"account","inputs":[{"name":"impl","type":"address","internalType":"address"},{"name":"salt","type":"bytes32","internalType":"bytes32"},{"name":"chainId","type":"uint256","internalType":"uint256"},{"name":"tc","type":"address","internalType":"address"},{"name":"tid","type":"uint256","internalType":"uint256"}],"outputs":[{"name":"","type":"address","internalType":"address"}],"stateMutability":"view"},{"type":"function","name":"createAccount","inputs":[{"name":"impl","type":"address","internalType":"address"},{"name":"salt","type":"bytes32","internalType":"bytes32"},{"name":"chainId","type":"uint256","internalType":"uint256"},{"name":"tc","type":"address","internalType":"address"},{"name":"tid","type":"uint256","internalType":"uint256"}],"outputs":[{"name":"","type":"address","internalType":"address"}],"stateMutability":"nonpayable"},{"type":"event","name":"ERC6551AccountCreated","inputs":[{"name":"account","type":"address","indexed":false,"internalType":"address"},{"name":"implementation","type":"address","indexed":true,"internalType":"address"},{"name":"salt","type":"bytes32","indexed":false,"internalType":"bytes32"},{"name":"chainId","type":"uint256","indexed":false,"internalType":"uint256"},{"name":"tokenContract","type":"address","indexed":true,"internalType":"address"},{"name":"tokenId","type":"uint256","indexed":true,"internalType":"uint256"}],"anonymous":false},{"type":"error","name":"AccountCreationFailed","inputs":[]}],"bytecode":{"object":"0x608060405234801561000f575f80fd5b506103458061001d5f395ff3fe608060405234801561000f575f80fd5b5060043610610034575f3560e01c8063246a0021146100385780638a54c52f14610067575b5f80fd5b61004b610046366004610246565b61007a565b6040516001600160a01b03909116815260200160405180910390f35b61004b610075366004610246565b61009d565b5f61009161008b8787878787610166565b866101cf565b90505b95945050505050565b5f806100ac8787878787610166565b90505f6100b982886101cf565b90506001600160a01b0381163b156100d45791506100949050565b868251602084015ff590506001600160a01b038116610106576040516320188a5960e01b815260040160405180910390fd5b604080516001600160a01b038381168252602082018a9052918101889052859180881691908b16907f79f19b3655ee38b1ce526556b7731a20c8f218fbda4a3990b6cc4172fdf887229060600160405180910390a4979650505050505050565b60408051602081018690529081018490526001600160a01b0383166060828101919091526080820183905290869060a00160408051601f19818403018152908290526101b59291602001610290565b604051602081830303815290604052905095945050505050565b8151602092830120604080516001600160f81b0319818601523060601b6bffffffffffffffffffffffff191660218201526035810193909352605580840192909252805180840390920182526075909201909152805191012090565b80356001600160a01b0381168114610241575f80fd5b919050565b5f805f805f60a0868803121561025a575f80fd5b6102638661022b565b9450602086013593506040860135925061027f6060870161022b565b949793965091946080013592915050565b733d60ad80600a3d3981f3363d3d373d3d3d363d7360601b8152606083901b6bffffffffffffffffffffffff191660148201526e5af43d82803e903d91602b57fd5bf360881b602882015281515f90815b818110156102fe57602081860181015160378684010152016102e1565b505f9201603701918252509291505056fea2646970667358221220a425b2a1b5f9488aa3be92362be222bc8bc41d8144449bd62062fead2c6627c164736f6c63430008140033","linkReferences":{}},"methodIdentifiers":{"account(address,bytes32,uint256,address,uint256)":"246a0021","createAccount(address,bytes32,uint256,address,uint256)":"8a54c52f"},"id":40}