{"abi":[{"type":"receive","stateMutability":"payable"},{"type":"function","name":"execute","inputs":[{"name":"to","type":"address","internalType":"address"},{"name":"value","type":"uint256","internalType":"uint256"},{"name":"data","type":"bytes","internalType":"bytes"},{"name":"operation","type":"uint8","internalType":"uint8"}],"outputs":[{"name":"result","type":"bytes","internalType":"bytes"}],"stateMutability":"payable"},{"type":"function","name":"isValidSignature","inputs":[{"name":"","type":"bytes32","internalType":"bytes32"},{"name":"","type":"bytes","internalType":"bytes"}],"outputs":[{"name":"","type":"bytes4","internalType":"bytes4"}],"stateMutability":"pure"},{"type":"function","name":"isValidSigner","inputs":[{"name":"signer","type":"address","internalType":"address"},{"name":"","type":"bytes","internalType":"bytes"}],"outputs":[{"name":"","type":"bytes4","internalType":"bytes4"}],"stateMutability":"view"},{"type":"function","name":"onERC1155BatchReceived","inputs":[{"name":"","type":"address","internalType":"address"},{"name":"","type":"address","internalType":"address"},{"name":"","type":"uint256[]","internalType":"uint256[]"},{"name":"","type":"uint256[]","internalType":"uint256[]"},{"name":"","type":"bytes","internalType":"bytes"}],"outputs":[{"name":"","type":"bytes4","internalType":"bytes4"}],"stateMutability":"pure"},{"type":"function","name":"onERC1155Received","inputs":[{"name":"","type":"address","internalType":"address"},{"name":"","type":"address","internalType":"address"},{"name":"","type":"uint256","internalType":"uint256"},{"name":"","type":"uint256","internalType":"uint256"},{"name":"","type":"bytes","internalType":"bytes"}],"outputs":[{"name":"","type":"bytes4","internalType":"bytes4"}],"stateMutability":"pure"},{"type":"function","name":"onERC721Received","inputs":[{"name":"","type":"address","internalType":"address"},{"name":"","type":"address","internalType":"address"},{"name":"","type":"uint256","internalType":"uint256"},{"name":"","type":"bytes","internalType":"bytes"}],"outputs":[{"name":"","type":"bytes4","internalType":"bytes4"}],"stateMutability":"pure"},{"type":"function","name":"owner","inputs":[],"outputs":[{"name":"","type":"address","internalType":"address"}],"stateMutability":"view"},{"type":"function","name":"state","inputs":[],"outputs":[{"name":"","type":"uint256","internalType":"uint256"}],"stateMutability":"view"},{"type":"function","name":"supportsInterface","inputs":[{"name":"i","type":"bytes4","internalType":"bytes4"}],"outputs":[{"name":"","type":"bool","internalType":"bool"}],"stateMutability":"pure"},{"type":"function","name":"token","inputs":[],"outputs":[{"name":"chainId","type":"uint256","internalType":"uint256"},{"name":"tokenContract","type":"address","internalType":"address"},{"name":"tokenId","type":"uint256","internalType":"uint256"}],"stateMutability":"view"}],"bytecode":{"object":"0x608060405234801561000f575f80fd5b50610ca98061001d5f395ff3fe608060405260043610610092575f3560e01c80638da5cb5b116100575780638da5cb5b1461017d578063bc197c81146101a9578063c19d93fb146101d7578063f23a6e61146101f3578063fc0c546a1461021f575f80fd5b806301ffc9a71461009d578063150b7a02146100d15780631626ba7e14610115578063519454471461013e578063523e32601461015e575f80fd5b3661009957005b5f80fd5b3480156100a8575f80fd5b506100bc6100b73660046106e3565b610256565b60405190151581526020015b60405180910390f35b3480156100dc575f80fd5b506100fc6100eb36600461076d565b630a85bd0160e11b95945050505050565b6040516001600160e01b031990911681526020016100c8565b348015610120575f80fd5b506100fc61012f366004610847565b6001600160e01b031992915050565b61015161014c3660046108cb565b6102f8565b6040516100c8919061098c565b348015610169575f80fd5b506100fc61017836600461099e565b610429565b348015610188575f80fd5b5061019161044e565b6040516001600160a01b0390911681526020016100c8565b3480156101b4575f80fd5b506100fc6101c3366004610a30565b63bc197c8160e01b98975050505050505050565b3480156101e2575f80fd5b505f546040519081526020016100c8565b3480156101fe575f80fd5b506100fc61020d366004610ae7565b63f23a6e6160e01b9695505050505050565b34801561022a575f80fd5b506102336104df565b604080519384526001600160a01b039092166020840152908201526060016100c8565b5f6001600160e01b031982166301ffc9a760e01b148061028657506001600160e01b03198216636faff5f160e01b145b806102a157506001600160e01b03198216635194544760e01b145b806102bc57506001600160e01b03198216630b135d3f60e11b145b806102d757506001600160e01b03198216630a85bd0160e11b145b806102f257506001600160e01b03198216630271189760e51b145b92915050565b606061030333610531565b6103455760405162461bcd60e51b815260206004820152600e60248201526d1b9bdd08185d5d1a1bdc9a5e995960921b60448201526064015b60405180910390fd5b60ff8216156103825760405162461bcd60e51b81526020600482015260096024820152681bdb9b1e4818d85b1b60ba1b604482015260640161033c565b5f80815461038f90610b5e565b919050819055505f866001600160a01b03168686866040516103b2929190610b82565b5f6040518083038185875af1925050503d805f81146103ec576040519150601f19603f3d011682016040523d82523d5f602084013e6103f1565b606091505b50925090508061040083610696565b9061041e5760405162461bcd60e51b815260040161033c919061098c565b505095945050505050565b5f61043384610531565b61043d575f610446565b630291f19360e51b5b949350505050565b5f805f8061045a6104df565b925092509250468314610470575f935050505090565b6040516331a9108f60e11b8152600481018290526001600160a01b03831690636352211e90602401602060405180830381865afa1580156104b3573d5f803e3d5ffd5b505050506040513d601f19601f820116820180604052508101906104d79190610b91565b935050505090565b604080516060808252608082019092525f91829182918291906020820181803683370190505090506060604d60208301303c808060200190518101906105259190610bac565b93509350935050909192565b5f8061053b61044e565b90506001600160a01b03811661055357505f92915050565b806001600160a01b0316836001600160a01b0316036105755750600192915050565b5f8061057f6104df565b60405163e985e9c560e01b81526001600160a01b0387811660048301528981166024830152929550909350908416915063e985e9c590604401602060405180830381865afa1580156105d3573d5f803e3d5ffd5b505050506040513d601f19601f820116820180604052508101906105f79190610be2565b1561060757506001949350505050565b60405163020604bf60e21b8152600481018290526001600160a01b03808716919084169063081812fc90602401602060405180830381865afa15801561064f573d5f803e3d5ffd5b505050506040513d601f19601f820116820180604052508101906106739190610b91565b6001600160a01b03160361068c57506001949350505050565b505f949350505050565b60606004825110156106c957505060408051808201909152600b81526a195e1958c819985a5b195960aa1b602082015290565b600482019150818060200190518101906102f29190610c01565b5f602082840312156106f3575f80fd5b81356001600160e01b03198116811461070a575f80fd5b9392505050565b6001600160a01b0381168114610725575f80fd5b50565b5f8083601f840112610738575f80fd5b50813567ffffffffffffffff81111561074f575f80fd5b602083019150836020828501011115610766575f80fd5b9250929050565b5f805f805f60808688031215610781575f80fd5b853561078c81610711565b9450602086013561079c81610711565b935060408601359250606086013567ffffffffffffffff8111156107be575f80fd5b6107ca88828901610728565b969995985093965092949392505050565b634e487b7160e01b5f52604160045260245ffd5b604051601f8201601f1916810167ffffffffffffffff81118282101715610818576108186107db565b604052919050565b5f67ffffffffffffffff821115610839576108396107db565b50601f01601f191660200190565b5f8060408385031215610858575f80fd5b82359150602083013567ffffffffffffffff811115610875575f80fd5b8301601f81018513610885575f80fd5b803561089861089382610820565b6107ef565b8181528660208385010111156108ac575f80fd5b816020840160208301375f602083830101528093505050509250929050565b5f805f805f608086880312156108df575f80fd5b85356108ea81610711565b945060208601359350604086013567ffffffffffffffff81111561090c575f80fd5b61091888828901610728565b909450925050606086013560ff81168114610931575f80fd5b809150509295509295909350565b5f5b83811015610959578181015183820152602001610941565b50505f910152565b5f815180845261097881602086016020860161093f565b601f01601f19169290920160200192915050565b602081525f61070a6020830184610961565b5f805f604084860312156109b0575f80fd5b83356109bb81610711565b9250602084013567ffffffffffffffff8111156109d6575f80fd5b6109e286828701610728565b9497909650939450505050565b5f8083601f8401126109ff575f80fd5b50813567ffffffffffffffff811115610a16575f80fd5b6020830191508360208260051b8501011115610766575f80fd5b5f805f805f805f8060a0898b031215610a47575f80fd5b8835610a5281610711565b97506020890135610a6281610711565b9650604089013567ffffffffffffffff80821115610a7e575f80fd5b610a8a8c838d016109ef565b909850965060608b0135915080821115610aa2575f80fd5b610aae8c838d016109ef565b909650945060808b0135915080821115610ac6575f80fd5b50610ad38b828c01610728565b999c989b5096995094979396929594505050565b5f805f805f8060a08789031215610afc575f80fd5b8635610b0781610711565b95506020870135610b1781610711565b94506040870135935060608701359250608087013567ffffffffffffffff811115610b40575f80fd5b610b4c89828a01610728565b979a9699509497509295939492505050565b5f60018201610b7b57634e487b7160e01b5f52601160045260245ffd5b5060010190565b818382375f9101908152919050565b5f60208284031215610ba1575f80fd5b815161070a81610711565b5f805f60608486031215610bbe575f80fd5b835192506020840151610bd081610711565b80925050604084015190509250925092565b5f60208284031215610bf2575f80fd5b8151801515811461070a575f80fd5b5f60208284031215610c11575f80fd5b815167ffffffffffffffff811115610c27575f80fd5b8201601f81018413610c37575f80fd5b8051610c4561089382610820565b818152856020838501011115610c59575f80fd5b610c6a82602083016020860161093f565b9594505050505056fea2646970667358221220e39a8e4982c2e845ea34f49803a797352d871cc26b2b44de86e7bf76865bd5b764736f6c63430008140033","linkReferences":{}},"methodIdentifiers":{"execute(address,uint256,bytes,uint8)":"51945447","isValidSignature(bytes32,bytes)":"1626ba7e","isValidSigner(address,bytes)":"523e3260","onERC1155BatchReceived(address,address,uint256[],uint256[],bytes)":"bc197c81","onERC1155Received(address,address,uint256,uint256,bytes)":"f23a6e61","onERC721Received(address,address,uint256,bytes)":"150b7a02","owner()":"8da5cb5b","state()":"c19d93fb","supportsInterface(bytes4)":"01ffc9a7","token()":"fc0c546a"},"id":5}