{"abi":[{"type":"constructor","inputs":[{"name":"_keyRegistry","type":"address","internalType":"address"},{"name":"_oracle","type":"address","internalType":"address"}],"stateMutability":"nonpayable"},{"type":"function","name":"approve","inputs":[{"name":"to","type":"address","internalType":"address"},{"name":"tokenId","type":"uint256","internalType":"uint256"}],"outputs":[],"stateMutability":"nonpayable"},{"type":"function","name":"balanceOf","inputs":[{"name":"owner","type":"address","internalType":"address"}],"outputs":[{"name":"","type":"uint256","internalType":"uint256"}],"stateMutability":"view"},{"type":"function","name":"brainURI","inputs":[{"name":"id","type":"uint256","internalType":"uint256"}],"outputs":[{"name":"","type":"string","internalType":"string"}],"stateMutability":"view"},{"type":"function","name":"eip712Domain","inputs":[],"outputs":[{"name":"fields","type":"bytes1","internalType":"bytes1"},{"name":"name","type":"string","internalType":"string"},{"name":"version","type":"string","internalType":"string"},{"name":"chainId","type":"uint256","internalType":"uint256"},{"name":"verifyingContract","type":"address","internalType":"address"},{"name":"salt","type":"bytes32","internalType":"bytes32"},{"name":"extensions","type":"uint256[]","internalType":"uint256[]"}],"stateMutability":"view"},{"type":"function","name":"getApproved","inputs":[{"name":"tokenId","type":"uint256","internalType":"uint256"}],"outputs":[{"name":"","type":"address","internalType":"address"}],"stateMutability":"view"},{"type":"function","name":"isApprovedForAll","inputs":[{"name":"owner","type":"address","internalType":"address"},{"name":"operator","type":"address","internalType":"address"}],"outputs":[{"name":"","type":"bool","internalType":"bool"}],"stateMutability":"view"},{"type":"function","name":"keyRegistry","inputs":[],"outputs":[{"name":"","type":"address","internalType":"contract BrainKeyRegistry"}],"stateMutability":"view"},{"type":"function","name":"latestBrainRoot","inputs":[{"name":"id","type":"uint256","internalType":"uint256"}],"outputs":[{"name":"","type":"bytes32","internalType":"bytes32"}],"stateMutability":"view"},{"type":"function","name":"mint","inputs":[{"name":"to","type":"address","internalType":"address"},{"name":"root","type":"bytes32","internalType":"bytes32"},{"name":"uri_","type":"string","internalType":"string"},{"name":"pubkey","type":"bytes","internalType":"bytes"}],"outputs":[{"name":"id","type":"uint256","internalType":"uint256"}],"stateMutability":"nonpayable"},{"type":"function","name":"name","inputs":[],"outputs":[{"name":"","type":"string","internalType":"string"}],"stateMutability":"view"},{"type":"function","name":"nextId","inputs":[],"outputs":[{"name":"","type":"uint256","internalType":"uint256"}],"stateMutability":"view"},{"type":"function","name":"oracle","inputs":[],"outputs":[{"name":"","type":"address","internalType":"address"}],"stateMutability":"view"},{"type":"function","name":"ownerOf","inputs":[{"name":"tokenId","type":"uint256","internalType":"uint256"}],"outputs":[{"name":"","type":"address","internalType":"address"}],"stateMutability":"view"},{"type":"function","name":"prevBrainRoot","inputs":[{"name":"id","type":"uint256","internalType":"uint256"}],"outputs":[{"name":"","type":"bytes32","internalType":"bytes32"}],"stateMutability":"view"},{"type":"function","name":"safeTransferFrom","inputs":[{"name":"from","type":"address","internalType":"address"},{"name":"to","type":"address","internalType":"address"},{"name":"tokenId","type":"uint256","internalType":"uint256"}],"outputs":[],"stateMutability":"nonpayable"},{"type":"function","name":"safeTransferFrom","inputs":[{"name":"from","type":"address","internalType":"address"},{"name":"to","type":"address","internalType":"address"},{"name":"tokenId","type":"uint256","internalType":"uint256"},{"name":"data","type":"bytes","internalType":"bytes"}],"outputs":[],"stateMutability":"nonpayable"},{"type":"function","name":"setApprovalForAll","inputs":[{"name":"operator","type":"address","internalType":"address"},{"name":"approved","type":"bool","internalType":"bool"}],"outputs":[],"stateMutability":"nonpayable"},{"type":"function","name":"supportsInterface","inputs":[{"name":"interfaceId","type":"bytes4","internalType":"bytes4"}],"outputs":[{"name":"","type":"bool","internalType":"bool"}],"stateMutability":"view"},{"type":"function","name":"symbol","inputs":[],"outputs":[{"name":"","type":"string","internalType":"string"}],"stateMutability":"view"},{"type":"function","name":"tokenURI","inputs":[{"name":"tokenId","type":"uint256","internalType":"uint256"}],"outputs":[{"name":"","type":"string","internalType":"string"}],"stateMutability":"view"},{"type":"function","name":"transferDigest","inputs":[{"name":"tokenId","type":"uint256","internalType":"uint256"},{"name":"from","type":"address","internalType":"address"},{"name":"to","type":"address","internalType":"address"},{"name":"newRoot","type":"bytes32","internalType":"bytes32"},{"name":"newURI","type":"string","internalType":"string"}],"outputs":[{"name":"","type":"bytes32","internalType":"bytes32"}],"stateMutability":"view"},{"type":"function","name":"transferFrom","inputs":[{"name":"from","type":"address","internalType":"address"},{"name":"to","type":"address","internalType":"address"},{"name":"tokenId","type":"uint256","internalType":"uint256"}],"outputs":[],"stateMutability":"nonpayable"},{"type":"function","name":"transferWithReKey","inputs":[{"name":"from","type":"address","internalType":"address"},{"name":"to","type":"address","internalType":"address"},{"name":"tokenId","type":"uint256","internalType":"uint256"},{"name":"newBrainRoot","type":"bytes32","internalType":"bytes32"},{"name":"newURI","type":"string","internalType":"string"},{"name":"sealedKey","type":"bytes","internalType":"bytes"},{"name":"oracleProof","type":"bytes","internalType":"bytes"}],"outputs":[],"stateMutability":"nonpayable"},{"type":"function","name":"updateBrain","inputs":[{"name":"id","type":"uint256","internalType":"uint256"},{"name":"newRoot","type":"bytes32","internalType":"bytes32"},{"name":"uri_","type":"string","internalType":"string"}],"outputs":[],"stateMutability":"nonpayable"},{"type":"event","name":"Approval","inputs":[{"name":"owner","type":"address","indexed":true,"internalType":"address"},{"name":"approved","type":"address","indexed":true,"internalType":"address"},{"name":"tokenId","type":"uint256","indexed":true,"internalType":"uint256"}],"anonymous":false},{"type":"event","name":"ApprovalForAll","inputs":[{"name":"owner","type":"address","indexed":true,"internalType":"address"},{"name":"operator","type":"address","indexed":true,"internalType":"address"},{"name":"approved","type":"bool","indexed":false,"internalType":"bool"}],"anonymous":false},{"type":"event","name":"BrainReKeyed","inputs":[{"name":"tokenId","type":"uint256","indexed":true,"internalType":"uint256"},{"name":"from","type":"address","indexed":true,"internalType":"address"},{"name":"to","type":"address","indexed":true,"internalType":"address"},{"name":"newRoot","type":"bytes32","indexed":false,"internalType":"bytes32"}],"anonymous":false},{"type":"event","name":"BrainUpdated","inputs":[{"name":"tokenId","type":"uint256","indexed":true,"internalType":"uint256"},{"name":"prevRoot","type":"bytes32","indexed":false,"internalType":"bytes32"},{"name":"newRoot","type":"bytes32","indexed":false,"internalType":"bytes32"},{"name":"uri","type":"string","indexed":false,"internalType":"string"}],"anonymous":false},{"type":"event","name":"EIP712DomainChanged","inputs":[],"anonymous":false},{"type":"event","name":"Transfer","inputs":[{"name":"from","type":"address","indexed":true,"internalType":"address"},{"name":"to","type":"address","indexed":true,"internalType":"address"},{"name":"tokenId","type":"uint256","indexed":true,"internalType":"uint256"}],"anonymous":false},{"type":"error","name":"InvalidShortString","inputs":[]},{"type":"error","name":"StringTooLong","inputs":[{"name":"str","type":"string","internalType":"string"}]}],"bytecode":{"object":"0x6101a0604052600160085534801562000016575f80fd5b5060405162002a4e38038062002a4e83398101604081905262000039916200023e565b60408051808201825260058082526434a7232a1960d91b60208084018290528451808601865260018152603160f81b8183015285518087018752601781527f496e74656c6c6967656e74204e465420537175617265640000000000000000008184015286518088019097529386529085019190915291925f620000bd838262000314565b506001620000cc828262000314565b50620000de915083905060066200019f565b61012052620000ef8160076200019f565b61014052815160208084019190912060e052815190820120610100524660a0526200017c60e05161010051604080517f8b73c3c69bb8fe3d512ecc4cf759cc79239f7b179b0ffacaa9a75d522b39400f60208201529081019290925260608201524660808201523060a08201525f9060c00160405160208183030381529060405280519060200120905090565b60805250503060c0526001600160a01b039182166101605216610180526200044d565b5f602083511015620001be57620001b683620001d7565b9050620001d1565b81620001cb848262000314565b5060ff90505b92915050565b5f80829050601f815111156200020d578260405163305a27a960e01b8152600401620002049190620003dc565b60405180910390fd5b80516200021a8262000429565b179392505050565b80516001600160a01b038116811462000239575f80fd5b919050565b5f806040838503121562000250575f80fd5b6200025b8362000222565b91506200026b6020840162000222565b90509250929050565b634e487b7160e01b5f52604160045260245ffd5b600181811c908216806200029d57607f821691505b602082108103620002bc57634e487b7160e01b5f52602260045260245ffd5b50919050565b601f8211156200030f575f81815260208120601f850160051c81016020861015620002ea5750805b601f850160051c820191505b818110156200030b57828155600101620002f6565b5050505b505050565b81516001600160401b0381111562000330576200033062000274565b620003488162000341845462000288565b84620002c2565b602080601f8311600181146200037e575f8415620003665750858301515b5f19600386901b1c1916600185901b1785556200030b565b5f85815260208120601f198616915b82811015620003ae578886015182559484019460019091019084016200038d565b5085821015620003cc57878501515f19600388901b60f8161c191681555b5050505050600190811b01905550565b5f6020808352835180828501525f5b818110156200040957858101830151858201604001528201620003eb565b505f604082860101526040601f19601f8301168501019250505092915050565b80516020808301519190811015620002bc575f1960209190910360031b1b16919050565b60805160a05160c05160e0516101005161012051610140516101605161018051612586620004c85f395f81816102a80152610cee01525f81816101c401528181610a9c015261140001525f61085201525f61082701525f6115d501525f6115ad01525f61150801525f61153201525f61155c01526125865ff3fe608060405234801561000f575f80fd5b5060043610610153575f3560e01c806370a08231116100bf578063b88d4fde11610079578063b88d4fde1461031f578063b969c6b814610332578063c87b56dd14610345578063d17879de14610358578063e985e9c51461036b578063f96538f61461037e575f80fd5b806370a08231146102905780637dc0d1d0146102a357806384b0196e146102ca5780638a92ec74146102e557806395d89b4114610304578063a22cb4651461030c575f80fd5b806323e0bc531161011057806323e0bc531461020e57806342842e0e1461023b57806345e1ea771461024e57806361b8ce8c1461026157806361cc0dcb1461026a5780636352211e1461027d575f80fd5b806301ffc9a71461015757806306fdde031461017f578063081812fc14610194578063086b5198146101bf578063095ea7b3146101e657806323b872dd146101fb575b5f80fd5b61016a610165366004611c86565b610391565b60405190151581526020015b60405180910390f35b6101876103e2565b6040516101769190611cee565b6101a76101a2366004611d00565b610471565b6040516001600160a01b039091168152602001610176565b6101a77f000000000000000000000000000000000000000000000000000000000000000081565b6101f96101f4366004611d32565b610496565b005b6101f9610209366004611d5a565b6105af565b61022d61021c366004611d00565b5f908152600a602052604090205490565b604051908152602001610176565b6101f9610249366004611d5a565b6105e0565b61022d61025c366004611dd1565b6105fa565b61022d60085481565b610187610278366004611d00565b610698565b6101a761028b366004611d00565b610737565b61022d61029e366004611e44565b610796565b6101a77f000000000000000000000000000000000000000000000000000000000000000081565b6102d261081a565b6040516101769796959493929190611e5d565b61022d6102f3366004611d00565b5f9081526009602052604090205490565b6101876108a1565b6101f961031a366004611ef1565b6108b0565b6101f961032d366004611f3e565b6108bf565b6101f9610340366004612013565b6108f7565b610187610353366004611d00565b6109cf565b61022d610366366004612062565b610a3f565b61016a6103793660046120d4565b610b8c565b6101f961038c366004612105565b610bb9565b5f6001600160e01b031982166380ac58cd60e01b14806103c157506001600160e01b03198216635b5e139f60e01b145b806103dc57506301ffc9a760e01b6001600160e01b03198316145b92915050565b60605f80546103f0906121cd565b80601f016020809104026020016040519081016040528092919081815260200182805461041c906121cd565b80156104675780601f1061043e57610100808354040283529160200191610467565b820191905f5260205f20905b81548152906001019060200180831161044a57829003601f168201915b5050505050905090565b5f61047b82610e91565b505f908152600460205260409020546001600160a01b031690565b5f6104a082610737565b9050806001600160a01b0316836001600160a01b0316036105125760405162461bcd60e51b815260206004820152602160248201527f4552433732313a20617070726f76616c20746f2063757272656e74206f776e656044820152603960f91b60648201526084015b60405180910390fd5b336001600160a01b038216148061052e575061052e8133610b8c565b6105a05760405162461bcd60e51b815260206004820152603d60248201527f4552433732313a20617070726f76652063616c6c6572206973206e6f7420746f60448201527f6b656e206f776e6572206f7220617070726f76656420666f7220616c6c0000006064820152608401610509565b6105aa8383610ef2565b505050565b6105b93382610f5f565b6105d55760405162461bcd60e51b815260040161050990612205565b6105aa838383610fbd565b6105aa83838360405180602001604052805f8152506108bf565b5f61068d7fe9b8d95125ce3a70636a33ff2e8999e98a09dae5b59dd657821dd27782920a10888888888888604051610633929190612252565b6040805191829003822060208301979097528101949094526001600160a01b0392831660608501529116608083015260a082015260c081019190915260e0016040516020818303038152906040528051906020012061112c565b979650505050505050565b5f818152600b602052604090208054606091906106b4906121cd565b80601f01602080910402602001604051908101604052809291908181526020018280546106e0906121cd565b801561072b5780601f106107025761010080835404028352916020019161072b565b820191905f5260205f20905b81548152906001019060200180831161070e57829003601f168201915b50505050509050919050565b5f818152600260205260408120546001600160a01b0316806103dc5760405162461bcd60e51b8152602060048201526018602482015277115490cdcc8c4e881a5b9d985b1a59081d1bdad95b88125160421b6044820152606401610509565b5f6001600160a01b0382166107ff5760405162461bcd60e51b815260206004820152602960248201527f4552433732313a2061646472657373207a65726f206973206e6f7420612076616044820152683634b21037bbb732b960b91b6064820152608401610509565b506001600160a01b03165f9081526003602052604090205490565b5f6060808280808361084d7f00000000000000000000000000000000000000000000000000000000000000006006611158565b6108787f00000000000000000000000000000000000000000000000000000000000000006007611158565b604080515f80825260208201909252600f60f81b9b939a50919850469750309650945092509050565b6060600180546103f0906121cd565b6108bb338383611201565b5050565b6108c93383610f5f565b6108e55760405162461bcd60e51b815260040161050990612205565b6108f1848484846112ce565b50505050565b5f84815260026020526040902054610919906001600160a01b03163386611301565b6109565760405162461bcd60e51b815260206004820152600e60248201526d1b9bdd08185d5d1a1bdc9a5e995960921b6044820152606401610509565b5f8481526009602090815260408083208054600a845282852081905590879055600b9092529091206109898385836122ae565b50847f759bf8148c6bfac009459ec7604befc0ff80fc7c114157b800524502b902f622828686866040516109c09493929190612392565b60405180910390a25050505050565b60606109da82610e91565b5f6109ef60408051602081019091525f815290565b90505f815111610a0d5760405180602001604052805f815250610a38565b80610a1784611340565b604051602001610a289291906123bb565b6040516020818303038152906040525b9392505050565b600880545f9182610a4f836123e9565b919050559050610a5f87826113d0565b5f818152600960209081526040808320899055600b9091529020610a848587836122ae565b506040516320891b2d60e21b81526001600160a01b037f000000000000000000000000000000000000000000000000000000000000000016906382246cb490610ad59084908790879060040161240d565b5f604051808303815f87803b158015610aec575f80fd5b505af1158015610afe573d5f803e3d5ffd5b50505050610b42818885858080601f0160208091040260200160405190810160405280939291908181526020018383808284375f920191909152506113e992505050565b807f759bf8148c6bfac009459ec7604befc0ff80fc7c114157b800524502b902f6225f801b888888604051610b7a9493929190612392565b60405180910390a29695505050505050565b6001600160a01b039182165f90815260056020908152604080832093909416825291909152205460ff1690565b6001600160a01b038916610bf95760405162461bcd60e51b81526020600482015260076024820152667a65726f20746f60c81b6044820152606401610509565b896001600160a01b0316610c0c89610737565b6001600160a01b031614610c4f5760405162461bcd60e51b815260206004820152600a60248201526977726f6e672066726f6d60b01b6044820152606401610509565b610c5a8a338a611301565b610c975760405162461bcd60e51b815260206004820152600e60248201526d1b9bdd08185d5d1a1bdc9a5e995960921b6044820152606401610509565b5f610ca6898c8c8b8b8b6105fa565b90505f610cea84848080601f0160208091040260200160405190810160405280939291908181526020018383808284375f92019190915250869392505061146b9050565b90507f00000000000000000000000000000000000000000000000000000000000000006001600160a01b0316816001600160a01b031614610d5e5760405162461bcd60e51b815260206004820152600e60248201526d626164206f7261636c652073696760901b6044820152606401610509565b5f8a81526009602090815260408083208054600a8452828520819055908d9055600b909252909120610d91898b836122ae565b50610dd28b8d89898080601f0160208091040260200160405190810160405280939291908181526020018383808284375f920191909152506113e992505050565b600c805460ff19166001179055610dea8d8d8d610fbd565b600c805460ff191690556040518b907f759bf8148c6bfac009459ec7604befc0ff80fc7c114157b800524502b902f62290610e2c9084908e908e908e90612392565b60405180910390a28b6001600160a01b03168d6001600160a01b03168c7fe8e2bd18961dc1f17fbb29e145333ca029a943b5bedf0a1350bb613698e0d49b8d604051610e7a91815260200190565b60405180910390a450505050505050505050505050565b5f818152600260205260409020546001600160a01b0316610eef5760405162461bcd60e51b8152602060048201526018602482015277115490cdcc8c4e881a5b9d985b1a59081d1bdad95b88125160421b6044820152606401610509565b50565b5f81815260046020526040902080546001600160a01b0319166001600160a01b0384169081179091558190610f2682610737565b6001600160a01b03167f8c5be1e5ebec7d5bd14f71427d1e84f3dd0314c0f7b2291e5b200ac8c7c3b92560405160405180910390a45050565b5f80610f6a83610737565b9050806001600160a01b0316846001600160a01b03161480610f915750610f918185610b8c565b80610fb55750836001600160a01b0316610faa84610471565b6001600160a01b0316145b949350505050565b826001600160a01b0316610fd082610737565b6001600160a01b031614610ff65760405162461bcd60e51b81526004016105099061242f565b6001600160a01b0382166110585760405162461bcd60e51b8152602060048201526024808201527f4552433732313a207472616e7366657220746f20746865207a65726f206164646044820152637265737360e01b6064820152608401610509565b611065838383600161148d565b826001600160a01b031661107882610737565b6001600160a01b03161461109e5760405162461bcd60e51b81526004016105099061242f565b5f81815260046020908152604080832080546001600160a01b03199081169091556001600160a01b038781168086526003855283862080545f1901905590871680865283862080546001019055868652600290945282852080549092168417909155905184937fddf252ad1be2c89b69c2b068fc378daa952ba7f163c4a11628f55a4df523b3ef91a4505050565b5f6103dc6111386114fc565b8360405161190160f01b8152600281019290925260228201526042902090565b606060ff83146111725761116b8361162a565b90506103dc565b81805461117e906121cd565b80601f01602080910402602001604051908101604052809291908181526020018280546111aa906121cd565b80156111f55780601f106111cc576101008083540402835291602001916111f5565b820191905f5260205f20905b8154815290600101906020018083116111d857829003601f168201915b505050505090506103dc565b816001600160a01b0316836001600160a01b0316036112625760405162461bcd60e51b815260206004820152601960248201527f4552433732313a20617070726f766520746f2063616c6c6572000000000000006044820152606401610509565b6001600160a01b038381165f81815260056020908152604080832094871680845294825291829020805460ff191686151590811790915591519182527f17307eab39ab6107e8899845ad3d59bd9653f200f220920489ca2b5937696c31910160405180910390a3505050565b6112d9848484610fbd565b6112e584848484611667565b6108f15760405162461bcd60e51b815260040161050990612474565b5f836001600160a01b0316836001600160a01b0316148061132757506113278484610b8c565b80610fb55750826001600160a01b0316610faa83610471565b60605f61134c83611764565b60010190505f8167ffffffffffffffff81111561136b5761136b611f2a565b6040519080825280601f01601f191660200182016040528015611395576020820181803683370190505b5090508181016020015b5f19016f181899199a1a9b1b9c1cb0b131b232b360811b600a86061a8153600a850494508461139f57509392505050565b6108bb828260405180602001604052805f81525061183b565b6040516303c82f2f60e11b81526001600160a01b037f000000000000000000000000000000000000000000000000000000000000000016906307905e5e90611439908690869086906004016124c6565b5f604051808303815f87803b158015611450575f80fd5b505af1158015611462573d5f803e3d5ffd5b50505050505050565b5f805f611478858561186d565b91509150611485816118af565b509392505050565b6001600160a01b038416158015906114ad57506001600160a01b03831615155b156108f157600c5460ff166108f15760405162461bcd60e51b8152602060048201526015602482015274757365207472616e736665725769746852654b657960581b6044820152606401610509565b5f306001600160a01b037f00000000000000000000000000000000000000000000000000000000000000001614801561155457507f000000000000000000000000000000000000000000000000000000000000000046145b1561157e57507f000000000000000000000000000000000000000000000000000000000000000090565b611625604080517f8b73c3c69bb8fe3d512ecc4cf759cc79239f7b179b0ffacaa9a75d522b39400f60208201527f0000000000000000000000000000000000000000000000000000000000000000918101919091527f000000000000000000000000000000000000000000000000000000000000000060608201524660808201523060a08201525f9060c00160405160208183030381529060405280519060200120905090565b905090565b60605f611636836119f8565b6040805160208082528183019092529192505f91906020820181803683375050509182525060208101929092525090565b5f6001600160a01b0384163b1561175957604051630a85bd0160e11b81526001600160a01b0385169063150b7a02906116aa9033908990889088906004016124ef565b6020604051808303815f875af19250505080156116e4575060408051601f3d908101601f191682019092526116e191810190612521565b60015b61173f573d808015611711576040519150601f19603f3d011682016040523d82523d5f602084013e611716565b606091505b5080515f036117375760405162461bcd60e51b815260040161050990612474565b805181602001fd5b6001600160e01b031916630a85bd0160e11b149050610fb5565b506001949350505050565b5f8072184f03e93ff9f4daa797ed6e38ed64bf6a1f0160401b83106117a25772184f03e93ff9f4daa797ed6e38ed64bf6a1f0160401b830492506040015b6d04ee2d6d415b85acef810000000083106117ce576d04ee2d6d415b85acef8100000000830492506020015b662386f26fc1000083106117ec57662386f26fc10000830492506010015b6305f5e1008310611804576305f5e100830492506008015b612710831061181857612710830492506004015b6064831061182a576064830492506002015b600a83106103dc5760010192915050565b6118458383611a1f565b6118515f848484611667565b6105aa5760405162461bcd60e51b815260040161050990612474565b5f8082516041036118a1576020830151604084015160608501515f1a61189587828585611bb4565b945094505050506118a8565b505f905060025b9250929050565b5f8160048111156118c2576118c261253c565b036118ca5750565b60018160048111156118de576118de61253c565b0361192b5760405162461bcd60e51b815260206004820152601860248201527f45434453413a20696e76616c6964207369676e617475726500000000000000006044820152606401610509565b600281600481111561193f5761193f61253c565b0361198c5760405162461bcd60e51b815260206004820152601f60248201527f45434453413a20696e76616c6964207369676e6174757265206c656e677468006044820152606401610509565b60038160048111156119a0576119a061253c565b03610eef5760405162461bcd60e51b815260206004820152602260248201527f45434453413a20696e76616c6964207369676e6174757265202773272076616c604482015261756560f01b6064820152608401610509565b5f60ff8216601f8111156103dc57604051632cd44ac360e21b815260040160405180910390fd5b6001600160a01b038216611a755760405162461bcd60e51b815260206004820181905260248201527f4552433732313a206d696e7420746f20746865207a65726f20616464726573736044820152606401610509565b5f818152600260205260409020546001600160a01b031615611ad95760405162461bcd60e51b815260206004820152601c60248201527f4552433732313a20746f6b656e20616c7265616479206d696e746564000000006044820152606401610509565b611ae65f8383600161148d565b5f818152600260205260409020546001600160a01b031615611b4a5760405162461bcd60e51b815260206004820152601c60248201527f4552433732313a20746f6b656e20616c7265616479206d696e746564000000006044820152606401610509565b6001600160a01b0382165f81815260036020908152604080832080546001019055848352600290915280822080546001600160a01b0319168417905551839291907fddf252ad1be2c89b69c2b068fc378daa952ba7f163c4a11628f55a4df523b3ef908290a45050565b5f807f7fffffffffffffffffffffffffffffff5d576e7357a4501ddfe92f46681b20a0831115611be957505f90506003611c68565b604080515f8082526020820180845289905260ff881692820192909252606081018690526080810185905260019060a0016020604051602081039080840390855afa158015611c3a573d5f803e3d5ffd5b5050604051601f1901519150506001600160a01b038116611c62575f60019250925050611c68565b91505f90505b94509492505050565b6001600160e01b031981168114610eef575f80fd5b5f60208284031215611c96575f80fd5b8135610a3881611c71565b5f5b83811015611cbb578181015183820152602001611ca3565b50505f910152565b5f8151808452611cda816020860160208601611ca1565b601f01601f19169290920160200192915050565b602081525f610a386020830184611cc3565b5f60208284031215611d10575f80fd5b5035919050565b80356001600160a01b0381168114611d2d575f80fd5b919050565b5f8060408385031215611d43575f80fd5b611d4c83611d17565b946020939093013593505050565b5f805f60608486031215611d6c575f80fd5b611d7584611d17565b9250611d8360208501611d17565b9150604084013590509250925092565b5f8083601f840112611da3575f80fd5b50813567ffffffffffffffff811115611dba575f80fd5b6020830191508360208285010111156118a8575f80fd5b5f805f805f8060a08789031215611de6575f80fd5b86359550611df660208801611d17565b9450611e0460408801611d17565b935060608701359250608087013567ffffffffffffffff811115611e26575f80fd5b611e3289828a01611d93565b979a9699509497509295939492505050565b5f60208284031215611e54575f80fd5b610a3882611d17565b60ff60f81b881681525f602060e081840152611e7c60e084018a611cc3565b8381036040850152611e8e818a611cc3565b606085018990526001600160a01b038816608086015260a0850187905284810360c086015285518082528387019250908301905f5b81811015611edf57835183529284019291840191600101611ec3565b50909c9b505050505050505050505050565b5f8060408385031215611f02575f80fd5b611f0b83611d17565b915060208301358015158114611f1f575f80fd5b809150509250929050565b634e487b7160e01b5f52604160045260245ffd5b5f805f8060808587031215611f51575f80fd5b611f5a85611d17565b9350611f6860208601611d17565b925060408501359150606085013567ffffffffffffffff80821115611f8b575f80fd5b818701915087601f830112611f9e575f80fd5b813581811115611fb057611fb0611f2a565b604051601f8201601f19908116603f01168101908382118183101715611fd857611fd8611f2a565b816040528281528a6020848701011115611ff0575f80fd5b826020860160208301375f60208483010152809550505050505092959194509250565b5f805f8060608587031215612026575f80fd5b8435935060208501359250604085013567ffffffffffffffff81111561204a575f80fd5b61205687828801611d93565b95989497509550505050565b5f805f805f8060808789031215612077575f80fd5b61208087611d17565b955060208701359450604087013567ffffffffffffffff808211156120a3575f80fd5b6120af8a838b01611d93565b909650945060608901359150808211156120c7575f80fd5b50611e3289828a01611d93565b5f80604083850312156120e5575f80fd5b6120ee83611d17565b91506120fc60208401611d17565b90509250929050565b5f805f805f805f805f8060e08b8d03121561211e575f80fd5b6121278b611d17565b995061213560208c01611d17565b985060408b0135975060608b0135965060808b013567ffffffffffffffff8082111561215f575f80fd5b61216b8e838f01611d93565b909850965060a08d0135915080821115612183575f80fd5b61218f8e838f01611d93565b909650945060c08d01359150808211156121a7575f80fd5b506121b48d828e01611d93565b915080935050809150509295989b9194979a5092959850565b600181811c908216806121e157607f821691505b6020821081036121ff57634e487b7160e01b5f52602260045260245ffd5b50919050565b6020808252602d908201527f4552433732313a2063616c6c6572206973206e6f7420746f6b656e206f776e6560408201526c1c881bdc88185c1c1c9bdd9959609a1b606082015260800190565b818382375f9101908152919050565b601f8211156105aa575f81815260208120601f850160051c810160208610156122875750805b601f850160051c820191505b818110156122a657828155600101612293565b505050505050565b67ffffffffffffffff8311156122c6576122c6611f2a565b6122da836122d483546121cd565b83612261565b5f601f84116001811461230b575f85156122f45750838201355b5f19600387901b1c1916600186901b178355612363565b5f83815260209020601f19861690835b8281101561233b578685013582556020948501946001909201910161231b565b5086821015612357575f1960f88860031b161c19848701351681555b505060018560011b0183555b5050505050565b81835281816020850137505f828201602090810191909152601f909101601f19169091010190565b848152836020820152606060408201525f6123b160608301848661236a565b9695505050505050565b5f83516123cc818460208801611ca1565b8351908301906123e0818360208801611ca1565b01949350505050565b5f6001820161240657634e487b7160e01b5f52601160045260245ffd5b5060010190565b838152604060208201525f61242660408301848661236a565b95945050505050565b60208082526025908201527f4552433732313a207472616e736665722066726f6d20696e636f72726563742060408201526437bbb732b960d91b606082015260800190565b60208082526032908201527f4552433732313a207472616e7366657220746f206e6f6e20455243373231526560408201527131b2b4bb32b91034b6b83632b6b2b73a32b960711b606082015260800190565b8381526001600160a01b03831660208201526060604082018190525f9061242690830184611cc3565b6001600160a01b03858116825284166020820152604081018390526080606082018190525f906123b190830184611cc3565b5f60208284031215612531575f80fd5b8151610a3881611c71565b634e487b7160e01b5f52602160045260245ffdfea2646970667358221220d5c8083384256ac792ee4b6b6f20d49f5fd5caae952e5cb41114182af6025bc964736f6c63430008140033","linkReferences":{}},"methodIdentifiers":{"approve(address,uint256)":"095ea7b3","balanceOf(address)":"70a08231","brainURI(uint256)":"61cc0dcb","eip712Domain()":"84b0196e","getApproved(uint256)":"081812fc","isApprovedForAll(address,address)":"e985e9c5","keyRegistry()":"086b5198","latestBrainRoot(uint256)":"8a92ec74","mint(address,bytes32,string,bytes)":"d17879de","name()":"06fdde03","nextId()":"61b8ce8c","oracle()":"7dc0d1d0","ownerOf(uint256)":"6352211e","prevBrainRoot(uint256)":"23e0bc53","safeTransferFrom(address,address,uint256)":"42842e0e","safeTransferFrom(address,address,uint256,bytes)":"b88d4fde","setApprovalForAll(address,bool)":"a22cb465","supportsInterface(bytes4)":"01ffc9a7","symbol()":"95d89b41","tokenURI(uint256)":"c87b56dd","transferDigest(uint256,address,address,bytes32,string)":"45e1ea77","transferFrom(address,address,uint256)":"23b872dd","transferWithReKey(address,address,uint256,bytes32,string,bytes,bytes)":"f96538f6","updateBrain(uint256,bytes32,string)":"b969c6b8"},"id":36}