{"abi":[{"type":"constructor","inputs":[{"name":"_relayer","type":"address","internalType":"address"},{"name":"_signers","type":"address","internalType":"address"}],"stateMutability":"nonpayable"},{"type":"function","name":"freshSnapshot","inputs":[{"name":"tokenId","type":"uint256","internalType":"uint256"},{"name":"maxAge","type":"uint256","internalType":"uint256"}],"outputs":[{"name":"","type":"bool","internalType":"bool"}],"stateMutability":"view"},{"type":"function","name":"latestFull","inputs":[{"name":"tokenId","type":"uint256","internalType":"uint256"}],"outputs":[{"name":"","type":"tuple","internalType":"struct SnapshotAttestor.Snapshot","components":[{"name":"timestamp","type":"uint256","internalType":"uint256"},{"name":"storageRoot","type":"bytes32","internalType":"bytes32"},{"name":"prevBrainRoot","type":"bytes32","internalType":"bytes32"},{"name":"currBrainRoot","type":"bytes32","internalType":"bytes32"},{"name":"realizedPnL","type":"int256","internalType":"int256"},{"name":"sharpeE6","type":"int256","internalType":"int256"},{"name":"daEpoch","type":"uint256","internalType":"uint256"},{"name":"daQuorumId","type":"uint256","internalType":"uint256"}]}],"stateMutability":"view"},{"type":"function","name":"latestSnapshot","inputs":[{"name":"tokenId","type":"uint256","internalType":"uint256"}],"outputs":[{"name":"ts","type":"uint256","internalType":"uint256"},{"name":"root","type":"bytes32","internalType":"bytes32"}],"stateMutability":"view"},{"type":"function","name":"relayer","inputs":[],"outputs":[{"name":"","type":"address","internalType":"address"}],"stateMutability":"view"},{"type":"function","name":"signers","inputs":[],"outputs":[{"name":"","type":"address","internalType":"contract IDASigners"}],"stateMutability":"view"},{"type":"function","name":"snapshotCount","inputs":[{"name":"tokenId","type":"uint256","internalType":"uint256"}],"outputs":[{"name":"","type":"uint256","internalType":"uint256"}],"stateMutability":"view"},{"type":"function","name":"submit","inputs":[{"name":"tokenId","type":"uint256","internalType":"uint256"},{"name":"s","type":"tuple","internalType":"struct SnapshotAttestor.Snapshot","components":[{"name":"timestamp","type":"uint256","internalType":"uint256"},{"name":"storageRoot","type":"bytes32","internalType":"bytes32"},{"name":"prevBrainRoot","type":"bytes32","internalType":"bytes32"},{"name":"currBrainRoot","type":"bytes32","internalType":"bytes32"},{"name":"realizedPnL","type":"int256","internalType":"int256"},{"name":"sharpeE6","type":"int256","internalType":"int256"},{"name":"daEpoch","type":"uint256","internalType":"uint256"},{"name":"daQuorumId","type":"uint256","internalType":"uint256"}]}],"outputs":[],"stateMutability":"nonpayable"},{"type":"event","name":"SnapshotPublished","inputs":[{"name":"tokenId","type":"uint256","indexed":true,"internalType":"uint256"},{"name":"timestamp","type":"uint256","indexed":false,"internalType":"uint256"},{"name":"storageRoot","type":"bytes32","indexed":false,"internalType":"bytes32"},{"name":"sharpeE6","type":"int256","indexed":false,"internalType":"int256"},{"name":"daEpoch","type":"uint256","indexed":false,"internalType":"uint256"}],"anonymous":false}],"bytecode":{"object":"0x60c060405234801561000f575f80fd5b506040516107e13803806107e183398101604081905261002e91610060565b6001600160a01b039182166080521660a052610091565b80516001600160a01b038116811461005b575f80fd5b919050565b5f8060408385031215610071575f80fd5b61007a83610045565b915061008860208401610045565b90509250929050565b60805160a05161071b6100c65f395f818160d3015261048101525f81816101b2015281816103dd0152610459015261071b5ff3fe608060405234801561000f575f80fd5b506004361061007a575f3560e01c80634aab99a3116100585780634aab99a31461010d57806379cea9f41461013a5780638406c079146101ad578063df342c57146101d4575f80fd5b806332dc3e751461007e57806343b7b6dc146100ab57806346f0975a146100ce575b5f80fd5b61009161008c366004610603565b6101e9565b604080519283526020830191909152015b60405180910390f35b6100be6100b936600461061a565b610250565b60405190151581526020016100a2565b6100f57f000000000000000000000000000000000000000000000000000000000000000081565b6040516001600160a01b0390911681526020016100a2565b61012c61011b366004610603565b5f9081526020819052604090205490565b6040519081526020016100a2565b61014d610148366004610603565b6102b7565b6040516100a291905f61010082019050825182526020830151602083015260408301516040830152606083015160608301526080830151608083015260a083015160a083015260c083015160c083015260e083015160e083015292915050565b6100f57f000000000000000000000000000000000000000000000000000000000000000081565b6101e76101e236600461063a565b6103d2565b005b5f8181526020819052604081208054829190820361020c57505f93849350915050565b80545f90829061021e90600190610685565b8154811061022e5761022e610698565b905f5260205f2090600802019050805f01548160010154935093505050915091565b5f8281526020819052604081208054820361026e575f9150506102b1565b428382600184805490506102829190610685565b8154811061029257610292610698565b905f5260205f2090600802015f01546102ab91906106ac565b10159150505b92915050565b60408051610100810182525f8082526020808301829052828401829052606083018290526080830182905260a0830182905260c0830182905260e083018290528482528190529190912080546103435760405162461bcd60e51b815260206004820152600c60248201526b6e6f20736e617073686f747360a01b60448201526064015b60405180910390fd5b8054819061035390600190610685565b8154811061036357610363610698565b905f5260205f209060080201604051806101000160405290815f8201548152602001600182015481526020016002820154815260200160038201548152602001600482015481526020016005820154815260200160068201548152602001600782015481525050915050919050565b336001600160a01b037f000000000000000000000000000000000000000000000000000000000000000016146104385760405162461bcd60e51b815260206004820152600b60248201526a3737ba103932b630bcb2b960a91b604482015260640161033a565b6040516348bcbd2d60e01b815260c082013560048201526001600160a01b037f0000000000000000000000000000000000000000000000000000000000000000811660248301527f000000000000000000000000000000000000000000000000000000000000000016906348bcbd2d90604401602060405180830381865afa1580156104c6573d5f803e3d5ffd5b505050506040513d601f19601f820116820180604052508101906104ea91906106bf565b6105365760405162461bcd60e51b815260206004820152601860248201527f72656c61796572206e6f7420696e2044412071756f72756d0000000000000000604482015260640161033a565b5f828152602081815260408220805460018101825590835291208291600802016105a98282813581556020820135600182015560408201356002820155606082013560038201556080820135600482015560a0820135600582015560c0820135600682015560e082013560078201555050565b505060408051823581526020808401359082015260a08301358183015260c08301356060820152905183917f092ec7fad714750f6c013f0da47681c4800f7c85f13e92ae2fe6c9f2612bd744919081900360800190a25050565b5f60208284031215610613575f80fd5b5035919050565b5f806040838503121561062b575f80fd5b50508035926020909101359150565b5f8082840361012081121561064d575f80fd5b83359250610100601f1982011215610663575f80fd5b506020830190509250929050565b634e487b7160e01b5f52601160045260245ffd5b818103818111156102b1576102b1610671565b634e487b7160e01b5f52603260045260245ffd5b808201808211156102b1576102b1610671565b5f602082840312156106cf575f80fd5b815180151581146106de575f80fd5b939250505056fea26469706673582212207c9f1feb850890161ef58fb991cb2b3ab2120d73715dbaf5027e4a661803085164736f6c63430008140033","linkReferences":{}},"methodIdentifiers":{"freshSnapshot(uint256,uint256)":"43b7b6dc","latestFull(uint256)":"79cea9f4","latestSnapshot(uint256)":"32dc3e75","relayer()":"8406c079","signers()":"46f0975a","snapshotCount(uint256)":"4aab99a3","submit(uint256,(uint256,bytes32,bytes32,bytes32,int256,int256,uint256,uint256))":"df342c57"},"id":19}